:020000040000FA
:100000000C9463000C948B000C948B000C94AA0845
:100010000C94AA080C94AA080C948B000C948B00E6
:100020000C948B000C948B000C948B000C948B0024
:100030000C948B000C948B000C948B000C948B0014
:100040000C9441070C948B000C940F070C94E90658
:100050000C948B000C948B000C948B000C948B00F4
:100060000C948B070C948B000000000024002700E8
:100070002A0000000008000201000003040700003D
:1000800000000000000000000000230026002900FE
:1000900000000000250028002B00040404040404D0
:1000A0000404020202020202030303030303010227
:1000B00004081020408001020408102001020408F6
:1000C00010205309110D11241FBECFEFD8E0DEBF61
:1000D000CDBF23E0ACE5B1E001C01D92AD33B20766
:1000E000E1F711E0A0E0B1E0E6E3FBE102C005903A
:1000F0000D92AC35B107D9F710E0C2E6D0E004C0EC
:100100002197FE010E94880DC136D107C9F70E94D0
:100110006B0A0C948E0D0C940000FC0180818230DF
:1001200069F018F4813031F00895833059F084304B
:1001300061F0089588EC8093B300089588EC809373
:10014000B400089588EC87BD089588EC88BD0895B3
:1001500008950895AF92BF92CF92DF92EF92FF92EF
:100160000F931F93CF93DF936C017B018B01040FDF
:10017000151FEB015E01AE18BF08C017D10759F07B
:100180006991D601ED91FC910190F081E02DC601BD
:100190000995892B79F7C501DF91CF911F910F91B7
:1001A000FF90EF90DF90CF90BF90AF900895FC014B
:1001B000538D448D252F30E0842F90E0821B930BCC
:1001C000541710F0CF96089501970895FC01918D72
:1001D000828D981761F0A28DAE0FBF2FB11D5D9675
:1001E0008C91928D9F5F9F73928F90E008958FEF17
:1001F0009FEF0895FC01918D828D981731F0828DCB
:10020000E80FF11D858D90E008958FEF9FEF089521
:10021000FC01918D228D892F90E0805C9F4F821B85
:1002200091098F739927089583E692E00E9408014F
:1002300021E0892B09F420E0822F089580E090E0EE
:10024000892B29F00E94140181110C94000008955B
:10025000FC01A48DA80FB92FB11DA35ABF4F2C913B
:10026000848D90E001968F739927848FA689B78932
:100270002C93A089B1898C91837080648C93938D29
:10028000848D981306C00288F389E02D80818F7DCC
:1002900080830895EF92FF920F931F93CF93DF9384
:1002A000EC0181E0888F9B8D8C8D98131AC0E889B2
:1002B000F989808185FF15C09FB7F894EE89FF8981
:1002C0006083E889F98980818370806480839FBF1F
:1002D00081E090E0DF91CF911F910F91FF90EF901F
:1002E0000895F62E0B8D10E00F5F1F4F0F7311272F
:1002F000E02E8C8D8E110CC00FB607FCFACFE8896A
:10030000F989808185FFF5CFCE010E942801F1CFC8
:10031000EB8DEC0FFD2FF11DE35AFF4FF0829FB7DD
:10032000F8940B8FEA89FB8980818062CFCFCF93CD
:10033000DF93EC01888D8823B9F0AA89BB89E8890D
:10034000F9898C9185FD03C0808186FD0DC00FB6B3
:1003500007FCF7CF8C9185FFF2CF808185FFEDCF31
:10036000CE010E942801E9CFDF91CF91089590E05E
:10037000FC01EE58FF4F2491FC01E255FF4F3491F0
:10038000FC01E656FF4FE491EE23C9F0222339F039
:10039000233001F1A8F4213019F1223029F1F0E0E5
:1003A000EE0FFF1FE057FF4FA591B4918FB7F89460
:1003B000EC91611126C030953E233C938FBF089588
:1003C0002730A9F02830C9F0243049F78091800007
:1003D0008F7D03C0809180008F7780938000DFCF76
:1003E00084B58F7784BDDBCF84B58F7DFBCF8091C3
:1003F000B0008F778093B000D2CF8091B0008F7D16
:10040000F9CF3E2BDACFCF93DF9360E08CE00E94F0
:10041000B70160E088E00E94B701C7E0D0E060E08B
:1004200084E00E94B70180910C0390E00C2E02C082
:10043000959587950A94E2F761E080FF60E088E097
:100440000E94B70161E084E00E94B701219738F76C
:1004500061E08CE0DF91CF910C94B70161E08CE01A
:100460000E94220961E087E00E94220961E088E0A1
:100470000E94220961E084E00E94220910920C038C
:100480000E94030260E087E00C94B7013FB7F89444
:1004900080914F0290915002A0915102B09152026E
:1004A00026B5A89B05C02F3F19F00196A11DB11DCF
:1004B0003FBFBA2FA92F982F8827BC01CD01620F0B
:1004C000711D811D911D42E0660F771F881F991FC6
:1004D0004A95D1F708958F929F92AF92BF92CF9293
:1004E000DF92EF92FF924B015C010E9446026B018A
:1004F0007C010E9446026C197D098E099F09683EA5
:10050000734081059105A8F321E0821A9108A108A2
:10051000B10888EEC80E83E0D81EE11CF11C8114DE
:100520009104A104B10429F7FF90EF90DF90CF90E0
:10053000BF90AF909F908F90089520910402260F56
:100540003327331F21323105ECF420912802FC01BE
:1005500090E080E0243069F082E00895A0910402E8
:100560002191AC014C515E4FA40FB52FB11D2C93BE
:100570000196861798F380910402680F6093040235
:1005800080E0089581E008951092280281E0809330
:100590002A021092290261E082E10E94B70161E023
:1005A00083E10E94B701E9EBF0E080818E7F8083D8
:1005B00080818D7F808388E48093B80085E4809378
:1005C000BC000895CF93DF9391E09093E3018823DB
:1005D000B9F0C091B800D091BA008091BC008A7B7C
:1005E0008093BC0060E082E10E94B70160E083E19B
:1005F0000E94B7010E94C402D093BA00C093B80011
:10060000DF91CF9108950895E0915E0280915D029F
:10061000E81730F4F0E0E254FE4F808190E0089556
:100620008FEF9FEF089590915E0280915D022FEF12
:100630003FEF981748F4E92FF0E0E254FE4F208195
:1006400030E09F5F90935E02C901089580915D0242
:1006500090915E02891B990B0895CF92DF92EF92E1
:10066000FF920F931F93CF93DF937C01CB018A01FD
:100670002091BD01222389F0EB016B01C40ED51E30
:10068000CC15DD0569F06991D701ED91FC910190E0
:10069000F081E02DC7010995F3CF642F0E949D02E0
:1006A000C801DF91CF911F910F91FF90EF90DF90E4
:1006B000CF900895CF93DF931F92CDB7DEB76983B4
:1006C0002091BD012223F9F020915B02203258F0E5
:1006D00021E030E0FC013383228390E080E00F9042
:1006E000DF91CF91089580915C02E82FF0E0E3560E
:1006F000FE4F998190838F5F80935C0280935B02B1
:1007000081E090E0ECCF61E0CE0101960E949D0275
:10071000F7CFCF92DF92EF92FF920F931F93CF9379
:10072000DF93FC01C48121E02093BD01C0939C01B3
:1007300010925C0210925B028385682B80E093E04C
:100740000E945A03D0915B02D13208F092C00E94FD
:1007500046026B017C0180912802811165C082E014
:100760008093280281E080932A028FEF80932702F2
:1007700010924C02D0934B02ADE9B1E0EBE2F2E013
:1007800080E0D81385C010924D0280914D02CC0FAD
:10079000C82BC0934D0280912902813009F07CC0A2
:1007A000109229020E9446026B017C0180914D0249
:1007B0008093BB008091DF019091E001A091E10165
:1007C000B091E201892B8A2B8B2B99F00E94460273
:1007D0000091DF011091E0012091E1013091E201EF
:1007E0006C197D098E099F09061717072807390715
:1007F000E0F18091BC0083FDD9CF85EC8093BC00F3
:100800000E9446026B017C0180912802823009F42B
:1008100045C0809127028F3F61F18091270280328D
:1008200041F18091270225C08091DF019091E00184
:10083000A091E101B091E201892B8A2B8B2B09F465
:100840008ACF0E9446020091DF011091E0012091C1
:10085000E1013091E2016C197D098E099F090617AB
:1008600017072807390708F076CF8091DE010E942C
:10087000E20210925C0210925B021092BD01DF91C5
:10088000CF911F910F91FF90EF90DF90CF9008953F
:100890009D9191938F5F75CF85EEB0CF8091DF01F1
:1008A0009091E001A091E101B091E201892B8A2BA6
:1008B0008B2B09F4A9CF0E9446020091DF01109111
:1008C000E0012091E1013091E2016C197D098E096E
:1008D0009F09061717072807390708F095CFC5CFD6
:1008E000089520915502309156022817390771F466
:1008F0009091530280915402981741F0E091530275
:10090000F0E0E45AFE4F808190E008958FEF9FEF72
:1009100008952FB7F89480915F0290916002A091A2
:100920006102B09162022FBF809322039093230350
:10093000A0932403B09325038AE193E00E947104FD
:1009400097FF26C02FB7F89480915F0290916002C4
:10095000A0916102B09162022FBF40912203509199
:1009600023036091240370912503841B950BA60B30
:10097000B70B40911E0350911F03609120037091AB
:10098000210384179507A607B707B0F28FEF9FEFF3
:100990000895EF92FF920F931F93CF93DF93DC01A3
:1009A0005C96ED90FC905D97E114F10479F481E0A0
:1009B00090E013969C938E93129790E080E0DF91E5
:1009C000CF911F910F91FF90EF9008955196ED9167
:1009D000FC91529750968C915097982F90950FB705
:1009E0005E962C915E97122F127021FD6095F894FF
:1009F0002081112319F1282B2083E7012197F1F79A
:100A000028E0462F50E0308160FF1AC0382B308339
:100A1000E7012197F1F7BA0175956795215089F79C
:100A2000112381F08081892380830FBF5C968D9193
:100A30009C910197F1F781E090E0C1CF2923DCCFB1
:100A40003923E5CF9081892BEFCF2091550230914A
:100A500056022817390761F48091540220915302FD
:100A600090E0805C9F4F821B91098F7399270895B6
:100A700090E080E0089520915502309156022817A9
:100A80003907B9F49091530280915402981789F074
:100A9000E0915302F0E0E45AFE4F8081209153022E
:100AA00030E02F5F3F4F2F7333272093530290E0A6
:100AB00008958FEF9FEF089590E080E00895FC0186
:100AC0008081823069F028F423E092E0813051F097
:100AD0000895833011F126E090E0843019F00895F4
:100AE00024E091E06230E1F0643079F1613009F0A6
:100AF0003FC041E050E0BA0101C0660F9A95EAF7A5
:100B000080910C03862B01C0440F2A95EAF740958B
:100B1000482340930C030C94030227E095E0E2CFB6
:100B200041E050E0BA0102C0660F771F9A95E2F7E4
:100B3000CB01809590910C03892301C0440F2A9525
:100B4000EAF7842B80930C03E6CF41E050E0FA01F2
:100B500002C0EE0FFF1F9A95E2F7CF0101C0440FCC
:100B60002A95EAF7842B809590910C038923EACF8C
:100B700008950F931F93CF938C01C62F0E94890372
:100B80006C2F6460C8010E9489036C2F6B7FC801C1
:100B90000E94890383EC90E00197F1F7CF911F91B8
:100BA0000F9108950F931F93CF93DF938C01D62F4E
:100BB000C42F607F642B0E94B90580E1D89FB001EB
:100BC00011246C2BC801DF91CF911F910F910C94D0
:100BD000B905CF93DF93CDB7DEB728970FB6F8945A
:100BE000DEBF0FBECDBF98E0E0E0F1E0DE01119680
:100BF00001900D929A95E1F790911603981708F4D9
:100C00008FEF90E0880F991F21E030E02C0F3D1FFF
:100C1000820F931FFC016081606840E08EE093E0EA
:100C200028960FB6F894DEBF0FBECDBFDF91CF91EF
:100C30000C94D20541E00E94D20581E090E0089535
:100C4000FB0101900020E9F73197AF01461B570BDC
:100C5000DC01ED91FC910280F381E02D09948F92EB
:100C60009F92AF92BF92EF92FF920F931F93CF93F9
:100C7000DF93CDB7DEB7A1970FB6F894DEBF0FBEF6
:100C8000CDBF7C01FA01CB0119A2223008F42AE081
:100C90008E010F5D1F4F822E912CB12CA12CBF0114
:100CA000A50194010E94470DF901CA016A300CF5B3
:100CB000605DD8016E938D01232B242B252B79F7B2
:100CC00090E080E0109721F0BD01C7010E9420064E
:100CD000A1960FB6F894DEBF0FBECDBFDF91CF91C6
:100CE0001F910F91FF90EF90BF90AF909F908F90CA
:100CF0000895695CDECFCF92DF92EF92FF920F935F
:100D00001F93CF93DF9377FF21C06A017B01EC0132
:100D1000E881F9810190F081E02D6DE209958C0167
:100D200044275527BA014C195D096E097F092AE04D
:100D3000CE010E942F06800F911FDF91CF911F914E
:100D40000F91FF90EF90DF90CF9008952AE0DF9110
:100D5000CF911F910F91FF90EF90DF90CF900C9467
:100D60002F0685ED8093BC008091DF019091E0011A
:100D7000A091E101B091E2010796A11DB11D23E010
:100D8000B695A795979587952A95D1F72091BC00A0
:100D900024FD03C01092280208954091DF01509174
:100DA000E0016091E1017091E201452B462B472B58
:100DB00069F30097A105B10541F02AE22A95F1F700
:100DC00000C00197A109B109E1CF8091DE010C9427
:100DD000E2021F920F920FB60F9211242F933F93AE
:100DE0004F935F936F937F938F939F93AF93BF9333
:100DF000EF93FF9383E692E00E942801FF91EF9129
:100E0000BF91AF919F918F917F916F915F914F9122
:100E10003F912F910F900FBE0F901F9018951F922A
:100E20000F920FB60F9211242F938F939F93EF93EE
:100E3000FF93E0917302F09174028081E091790256
:100E4000F0917A0282FD1BC0908180917C028F5FBD
:100E50008F7320917D02821741F0E0917C02F0E0D7
:100E6000ED59FD4F958F80937C02FF91EF919F91FB
:100E70008F912F910F900FBE0F901F90189580812A
:100E8000F4CF1F920F920FB60F9211242F933F931E
:100E90008F939F93AF93BF9380915F029091600275
:100EA000A0916102B091620230914E0223E0230FC3
:100EB0002D3758F50196A11DB11D20934E02809348
:100EC0005F0290936002A0936102B09362028091EE
:100ED0004F0290915002A0915102B091520201969E
:100EE000A11DB11D80934F0290935002A093510217
:100EF000B0935202BF91AF919F918F913F912F91EB
:100F00000F900FBE0F901F90189526E8230F0296A2
:100F1000A11DB11DD2CF1F920F920FB60F921124B7
:100F20002F933F934F935F936F937F938F939F93F1
:100F3000AF93BF93EF93FF938091B900887F803682
:100F400009F44AC0F0F5883209F4A7C018F58031D9
:100F500009F49BC0B8F4882309F4F9C0883009F477
:100F600094C0FF91EF91BF91AF919F918F917F912D
:100F70006F915F914F913F912F910F900FBE0F9006
:100F80001F901895883109F488C0803251F78093FA
:100F9000270214C0803409F49DC040F48033B9F3B3
:100FA0008833F9F68093270285ECB0C0803509F4C8
:100FB00085C0883509F496C0883499F60E94B10638
:100FC000D0CF883909F48CC038F5883729F050F42F
:100FD000883611F0803729F683E08093280210923A
:100FE000260257C0883809F47BC0803919F0803850
:100FF00009F0B7CF80912602803208F071C0E091ED
:10100000260281E08E0F809326028091BB00F0E0E3
:10101000EA5FFD4F80833DC0803B39F0E0F4803AC9
:1010200009F479C0883A09F09CCF84E080932802C3
:101030001092050210920402E0915902F0915A02B6
:1010400009958091040281110FC081E08093040210
:101050001092E40109C0803C09F4A6CF883C09F451
:10106000A3CF883B09F07DCFE091050281E08E0F90
:1010700080930502F0E0EC51FE4F80818093BB002D
:10108000909105028091040229C080914D028093C5
:10109000BB0085EC8093BC0064CF90914C028091A2
:1010A0004B02981758F5E0914C0281E08E0F809327
:1010B0004C02F0E0E55DFD4F8081E9CFE0914C020C
:1010C00081E08E0F80934C028091BB00F0E0E55DE3
:1010D000FD4F808390914C0280914B029817C8F28B
:1010E00085E8D8CFE0914C0281E08E0F80934C02CE
:1010F0008091BB00F0E0E55DFD4F808380912A0286
:1011000081115CCF81E08093290284EA8093BC0046
:101110001092280226CF85EC8093BC001092280202
:1011200080912602803230F4E0912602F0E0EA5FFE
:10113000FD4F10826091260270E0E0915702F0911D
:10114000580286E092E00995109226020ACF10928A
:10115000270234CF1F920F920FB60F9211242F93B4
:101160003F934F935F936F937F938F939F93AF932F
:10117000BF93EF93FF93E0915502F09156023097A1
:1011800049F0A685B7858585968D91FF14C09C9101
:101190008923A1F4FF91EF91BF91AF919F918F911E
:1011A0007F916F915F914F913F912F910F900FBE63
:1011B0000F901F9018959C91892361F7A389B4899A
:1011C0009C918589809589238C938689978901973D
:1011D000F1F7608D718DA685B785558538E020E0E3
:1011E000CB010197F1F7822F90E095958795282FF5
:1011F0004C91452309F02068315091F7868D81FD8F
:1012000020958091540290E001968F739927309138
:101210005302381799F0A0915402B0E0A45ABE4F7F
:101220002C9380935402828D938D0197F1F7A389BB
:10123000B4898C919589892B8C93ACCF868D8160F4
:10124000868FF1CFCF93DF9390E0FC01E255FF4F03
:10125000249186569F4FFC0184918823D1F090E021
:10126000880F991FFC01E859FF4FA591B491FC012B
:10127000E057FF4FC591D49161110EC09FB7F8940C
:101280008C91E22FE0958E238C932881E223E883D2
:101290009FBFDF91CF9108958FB7F894EC91E22B27
:1012A000EC938FBFF6CFCF92DF92EF92FF92CF9366
:1012B000DF93109266021092650298EEC92E93E0B9
:1012C000D92EE12CF12CC0926702D0926802E092F4
:1012D0006902F0926A028CE091E09093640280933C
:1012E000630285EC90E09093700280936F0284EC2F
:1012F00090E0909372028093710280EC90E0909362
:1013000074028093730281EC90E090937602809354
:10131000750282EC90E0909378028093770286ECDD
:1013200090E090937A028093790210927C0210925E
:101330007D0210927E0210927F021092030310929F
:101340000203C0920403D0920503E0920603F092D8
:1013500007038EE191E090930103809300031092C4
:101360000D03D1E0D0933B03C2E0C0933C030E9445
:101370002E0280910C03837F80930C030E94030252
:101380008091B00083688093B000C093B100109248
:10139000B30061E08BE00E942209C0933903C0933F
:1013A0003A030E942E0280910C038D7E80930C03E1
:1013B0000E9403028091B00083628093B000C093CA
:1013C000B1001092B40061E083E00E942209109203
:1013D0001D0310921C03C0921E03D0921F03E092C3
:1013E0002003F09221038CE391E090931B03809300
:1013F0001A031092310310923003109233031092AB
:101400003203109235031092340310923703109276
:101410003603809138038E7F8D7F8093380381FB64
:10142000662760F96D278AE00E94B70161E08AE0D3
:101430000E942209E8EBF0E0E491E0932A03E4EA59
:10144000F0E0E491F0E0EE0FFF1FE057FF4F8591D1
:10145000949190932C0380932B0360E089E00E9489
:1014600022098091380381FD04C061E089E00E9477
:10147000B70189E080932603E7EBF0E0E491E09385
:101480002703E3EAF0E0E491F0E0EE0FFF1FEA57F4
:10149000FF4F859194919093290380932803109294
:1014A00011031092100380E391E090930F03809357
:1014B0000E0387E28093120380E18093170382E09A
:1014C0008093180310921903DF91CF91FF90EF9052
:1014D000DF90CF900895789484B5826084BD84B500
:1014E000816084BD85B5826085BD85B5816085BD1F
:1014F00080916E00816080936E00109281008091D7
:10150000810082608093810080918100816080935E
:101510008100809180008160809380008091B10083
:1015200084608093B1008091B00081608093B000AE
:1015300080917A00846080937A0080917A00826042
:1015400080937A0080917A00816080937A00809104
:101550007A00806880937A001092C1008BE393E058
:101560000E948D0064E08BE393E00E945F0589E3B5
:1015700093E00E948D0064E089E393E00E945F05A0
:10158000E0917302F091740282E08083E0916F0237
:10159000F09170021082E0917102F09172028FEC72
:1015A000808310927B02E0917702F091780286E0CE
:1015B0008083E0917502F091760280818061808362
:1015C000E0917502F0917602808188608083E091DD
:1015D0007502F0917602808180688083E0917502C7
:1015E000F091760280818F7D808310923503109276
:1015F000340310923303109232031092310310928D
:1016000030038DE991E090933703809336039091F6
:101610002603963108F047C02DEB30E030933103BC
:10162000209330032BE931E03093330320933203CE
:101630002CE231E03093350320933403209168008D
:1016400084E0983048F031E09E3008F430E081E0EA
:1016500001C0880F3A95EAF7822B809368002DE647
:1016600030E0983050F02BE630E09E3030F02CE641
:1016700030E0963110F030E020E030932E032093DC
:101680002D03292F30E0983008F0E4C081E001C03C
:10169000880F9A95EAF780932F03809136039091F3
:1016A00037030197F1F78091340390913503892B2B
:1016B00049F1E0915502F091560283E0EA31F807D2
:1016C00009F1309739F0A389B4899C918589809577
:1016D00089238C93809138038E7F809338031092F6
:1016E0005402109253028AE193E090935602809341
:1016F0005502E0912D03F0912E03808190912F03EC
:10170000892B808310925E0210925D0210925C021F
:1017100010925B020E94C40288EA90E090935A0201
:101720008093590289EA90E090935802809357027F
:101730001092130380911803823018F098E0909370
:1017400013038093160362E370E080E090E00E9450
:101750006B02609119038EE093E00E94890368EEAA
:1017600073E080E090E00E946B0260E38EE093E023
:101770000E94B9050BE416E4C8010197F1F760E394
:101780008EE093E00E94B905C8010197F1F760E38C
:101790008EE093E00E94B90583E592E00197F1F7AE
:1017A00060E28EE093E00E94B905609113036062ED
:1017B00040E08EE093E00E94D20584E08093140321
:1017C00040E06CE08EE093E00E94D20540E061E0F2
:1017D0008EE093E00E94D2050BE31FE1C801019760
:1017E000F1F782E08093150340E066E08EE093E03D
:1017F0000E94D20540E062E08EE093E00E94D205B4
:10180000C8010197F1F788E08093190360E08EE04A
:1018100093E00E94890380E00E94E9058AE0882E17
:10182000912CA12CB12C00E010E08AE193E00E9401
:101830002505892B01F564E08BE393E00E945F05A9
:101840000115110591F30E941401882371F30E9480
:101850000000EBCF9E3040F42850310981E001C0F8
:10186000880F2A95EAF717CF2E503109F7CF8AE172
:1018700093E00E943B050E948904FC0197FDC3C0D0
:101880008D32910519F0C0970A9788F7C12CD12C99
:101890007601C0E0E130F105D9F0ED32F10509F44F
:1018A000B0C0CF01C0970A9798F4AAE0B0E0A701B2
:1018B00096010E942D0D6F01FF0FEE08FF08C60E66
:1018C000D71EE81EF91E80E3C81AD108E108F10806
:1018D0008AE193E00E943B050E948904FC01C097C5
:1018E0000A97C0F2E130F105A9F2CC2309F48EC0C9
:1018F0004424552432014C185D086E087F08C11439
:10190000D104E104F10409F489C06DE283E692E0B8
:101910000E944A012AE0B701A60183E692E00E94F4
:101920002F06730162016AE471E083E692E00E948F
:10193000200681E00E94E9056DE471E08EE093E00D
:101940000E942006C701B60120E137E240E050E0E6
:101950000E94690D28EE33E040E050E00E94690DDE
:10196000BA01A9018EE093E00E947B06C701B6018F
:1019700028EE33E040E050E00E94690D24E630E0BC
:1019800040E050E00E94690DBA01A9018EE093E0A9
:101990000E947B06C701B60124E630E040E050E03B
:1019A0000E94690DA50194010E94690DBA01A90167
:1019B0008EE093E00E947B06C701B601A501940169
:1019C0000E94690DAB01BC018EE093E00E947B0692
:1019D00068E571E08EE093E00E94200682E3C8167D
:1019E000D104E104F1040CF426CF61E08BE393E031
:1019F0000E945F0564EF71E080E090E00E946B025E
:101A00001FCFC1E065CFC12CD12C76012AE0B701F0
:101A1000A60183E692E00E942F0685CF7301620142
:101A2000F5CF8CE391E090931B0380931A03809190
:101A30005502909156028A51934071F4E0912D0322
:101A4000F0912E03908180912F03809589238083CC
:101A5000109256021092550208950E94380DA59FCB
:101A6000900DB49F900DA49F800D911D1124089599
:101A7000A29FB001B39FC001A39F700D811D1124CF
:101A8000911DB29F700D811D1124911D0895A1E239
:101A90001A2EAA1BBB1BFD010DC0AA1FBB1FEE1FE8
:101AA000FF1FA217B307E407F50720F0A21BB30B33
:101AB000E40BF50B661F771F881F991F1A9469F7AF
:101AC00060957095809590959B01AC01BD01CF010B
:101AD0000895052E97FB1EF400940E94800D57FD7B
:101AE00007D00E94470D07FC03D04EF40C94800DE4
:101AF00050954095309521953F4F4F4F5F4F08953A
:101B000090958095709561957F4F8F4F9F4F089569
:101B1000EE0FFF1F0590F491E02D099410E0C2E64E
:101B2000D0E004C0FE010E94880D2196C336D10783
:101B3000C9F7F894FFCF00004000140054000000E3
:101B400000004A01AA00D70097010801E600FA0048
:101B5000000000005A032D035C0503032603130352
:101B60000403000000001A06AA005C0570040000CF
:101B70000000C904AA005C05030325053B057104A8
:101B80000D0A0044697374616E63653A2000636DE9
:021B9000000053
:107E0000112484B714BE81FFF0D085E080938100F7
:107E100082E08093C00088E18093C10086E0809377
:107E2000C20080E18093C4008EE0C9D0259A86E02C
:107E300020E33CEF91E0309385002093840096BBD3
:107E4000B09BFECF1D9AA8958150A9F7CC24DD24C4
:107E500088248394B5E0AB2EA1E19A2EF3E0BF2EE7
:107E6000A2D0813461F49FD0082FAFD0023811F036
:107E7000013811F484E001C083E08DD089C08234E0
:107E800011F484E103C0853419F485E0A6D080C0E4
:107E9000853579F488D0E82EFF2485D0082F10E0AE
:107EA000102F00270E291F29000F111F8ED06801E7
:107EB0006FC0863521F484E090D080E0DECF843638
:107EC00009F040C070D06FD0082F6DD080E0C81688
:107ED00080E7D80618F4F601B7BEE895C0E0D1E017
:107EE00062D089930C17E1F7F0E0CF16F0E7DF06D8
:107EF00018F0F601B7BEE89568D007B600FCFDCFD4
:107F0000A601A0E0B1E02C9130E011968C91119780
:107F100090E0982F8827822B932B1296FA010C0160
:107F200087BEE89511244E5F5F4FF1E0A038BF0790
:107F300051F7F601A7BEE89507B600FCFDCF97BE46
:107F4000E89526C08437B1F42ED02DD0F82E2BD052
:107F50003CD0F601EF2C8F010F5F1F4F84911BD097
:107F6000EA94F801C1F70894C11CD11CFA94CF0C13
:107F7000D11C0EC0853739F428D08EE10CD085E9AC
:107F80000AD08FE07ACF813511F488E018D01DD067
:107F900080E101D065CF982F8091C00085FFFCCF94
:107FA0009093C60008958091C00087FFFCCF809118
:107FB000C00084FD01C0A8958091C6000895E0E648
:107FC000F0E098E1908380830895EDDF803219F02E
:107FD00088E0F5DFFFCF84E1DECF1F93182FE3DFCA
:107FE0001150E9F7F2DF1F91089580E0E8DFEE27F6
:047FF000FF270994CA
:027FFE00040479
:00000001FF
